{
  "contractName": "DRCDDHashCon",
  "abi": [
    {
      "constant": false,
      "inputs": [
        {
          "name": "_memoStr",
          "type": "string"
        }
      ],
      "name": "setMemo",
      "outputs": [
        {
          "name": "",
          "type": "bool"
        }
      ],
      "payable": false,
      "stateMutability": "nonpayable",
      "type": "function"
    },
    {
      "constant": true,
      "inputs": [
        {
          "name": "_hash",
          "type": "string"
        }
      ],
      "name": "getTxIdByHash",
      "outputs": [
        {
          "name": "",
          "type": "string"
        }
      ],
      "payable": false,
      "stateMutability": "view",
      "type": "function"
    },
    {
      "constant": true,
      "inputs": [
        {
          "name": "_indices",
          "type": "uint256[]"
        }
      ],
      "name": "getInsertedHashGroup",
      "outputs": [
        {
          "name": "",
          "type": "bytes"
        }
      ],
      "payable": false,
      "stateMutability": "view",
      "type": "function"
    },
    {
      "constant": true,
      "inputs": [],
      "name": "memo",
      "outputs": [
        {
          "name": "",
          "type": "string"
        }
      ],
      "payable": false,
      "stateMutability": "view",
      "type": "function"
    },
    {
      "constant": false,
      "inputs": [],
      "name": "renounceOwnership",
      "outputs": [],
      "payable": false,
      "stateMutability": "nonpayable",
      "type": "function"
    },
    {
      "constant": true,
      "inputs": [],
      "name": "owner",
      "outputs": [
        {
          "name": "",
          "type": "address"
        }
      ],
      "payable": false,
      "stateMutability": "view",
      "type": "function"
    },
    {
      "constant": true,
      "inputs": [],
      "name": "isOwner",
      "outputs": [
        {
          "name": "",
          "type": "bool"
        }
      ],
      "payable": false,
      "stateMutability": "view",
      "type": "function"
    },
    {
      "constant": false,
      "inputs": [
        {
          "name": "_hash",
          "type": "string"
        },
        {
          "name": "_txHash",
          "type": "string"
        }
      ],
      "name": "addTxIdForOnchainData",
      "outputs": [
        {
          "name": "",
          "type": "bool"
        }
      ],
      "payable": false,
      "stateMutability": "nonpayable",
      "type": "function"
    },
    {
      "constant": false,
      "inputs": [
        {
          "name": "newOwner",
          "type": "address"
        }
      ],
      "name": "transferOwnership",
      "outputs": [],
      "payable": false,
      "stateMutability": "nonpayable",
      "type": "function"
    },
    {
      "constant": true,
      "inputs": [
        {
          "name": "_txHash",
          "type": "string"
        }
      ],
      "name": "getHashByTxId",
      "outputs": [
        {
          "name": "",
          "type": "string"
        }
      ],
      "payable": false,
      "stateMutability": "view",
      "type": "function"
    },
    {
      "inputs": [],
      "payable": false,
      "stateMutability": "nonpayable",
      "type": "constructor"
    },
    {
      "anonymous": false,
      "inputs": [
        {
          "indexed": true,
          "name": "_operator",
          "type": "address"
        },
        {
          "indexed": false,
          "name": "_hash",
          "type": "string"
        },
        {
          "indexed": false,
          "name": "_ddTask",
          "type": "string"
        },
        {
          "indexed": false,
          "name": "_bool",
          "type": "bool"
        }
      ],
      "name": "LogInsertDDHash",
      "type": "event"
    },
    {
      "anonymous": false,
      "inputs": [
        {
          "indexed": true,
          "name": "_operator",
          "type": "address"
        },
        {
          "indexed": false,
          "name": "_hash",
          "type": "string"
        },
        {
          "indexed": false,
          "name": "_ddTask",
          "type": "string"
        },
        {
          "indexed": false,
          "name": "_bool",
          "type": "bool"
        }
      ],
      "name": "LogDeleteDDHash",
      "type": "event"
    },
    {
      "anonymous": false,
      "inputs": [
        {
          "indexed": true,
          "name": "previousOwner",
          "type": "address"
        },
        {
          "indexed": true,
          "name": "newOwner",
          "type": "address"
        }
      ],
      "name": "OwnershipTransferred",
      "type": "event"
    },
    {
      "constant": false,
      "inputs": [
        {
          "name": "_hash",
          "type": "string"
        },
        {
          "name": "_uploadedData",
          "type": "bytes"
        }
      ],
      "name": "insertHash",
      "outputs": [
        {
          "name": "",
          "type": "bool"
        }
      ],
      "payable": false,
      "stateMutability": "nonpayable",
      "type": "function"
    },
    {
      "constant": true,
      "inputs": [
        {
          "name": "_hash",
          "type": "string"
        }
      ],
      "name": "selectHash",
      "outputs": [
        {
          "name": "",
          "type": "bool"
        },
        {
          "name": "",
          "type": "address"
        },
        {
          "name": "",
          "type": "bytes"
        },
        {
          "name": "",
          "type": "uint256"
        },
        {
          "name": "",
          "type": "string"
        }
      ],
      "payable": false,
      "stateMutability": "view",
      "type": "function"
    },
    {
      "constant": false,
      "inputs": [
        {
          "name": "_hash",
          "type": "string"
        }
      ],
      "name": "deleteHash",
      "outputs": [
        {
          "name": "",
          "type": "bool"
        }
      ],
      "payable": false,
      "stateMutability": "nonpayable",
      "type": "function"
    }
  ],
  "bytecode": "0x608060405234801561001057600080fd5b50600080546001600160a01b03191633178082556040516001600160a01b039190911691907f8be0079c531659141344cd1fd0a4f28419497f9722a3daafe3b4186f6b6457e0908290a3612e65806100696000396000f3fe608060405234801561001057600080fd5b50600436106100cf5760003560e01c80638da5cb5b1161008c578063be76054b11610066578063be76054b14610551578063d951707e1461067a578063f2fde38b14610827578063f7941ccf1461084d576100cf565b80638da5cb5b146104815780638f32d59b146104a5578063a856481c146104ad576100cf565b806325d60861146100d45780634017afdc1461018c5780635756400a146102a557806358c3b8701461034657806358c933cf1461034e578063715018a614610477575b600080fd5b610178600480360360208110156100ea57600080fd5b810190602081018135600160201b81111561010457600080fd5b82018360208201111561011657600080fd5b803590602001918460018302840111600160201b8311171561013757600080fd5b91908080601f0160208091040260200160405190810160405280939291908181526020018383808284376000920191909152509295506108f1945050505050565b604080519115158252519081900360200190f35b610230600480360360208110156101a257600080fd5b810190602081018135600160201b8111156101bc57600080fd5b8201836020820111156101ce57600080fd5b803590602001918460018302840111600160201b831117156101ef57600080fd5b91908080601f016020809104026020016040519081016040528093929190818152602001838380828437600092019190915250929550610959945050505050565b6040805160208082528351818301528351919283929083019185019080838360005b8381101561026a578181015183820152602001610252565b50505050905090810190601f1680156102975780820380516001836020036101000a031916815260200191505b509250505060405180910390f35b610230600480360360208110156102bb57600080fd5b810190602081018135600160201b8111156102d557600080fd5b8201836020820111156102e757600080fd5b803590602001918460208302840111600160201b8311171561030857600080fd5b919080806020026020016040519081016040528093929190818152602001838360200280828437600092019190915250929550610a79945050505050565b610230610bf4565b6101786004803603604081101561036457600080fd5b810190602081018135600160201b81111561037e57600080fd5b82018360208201111561039057600080fd5b803590602001918460018302840111600160201b831117156103b157600080fd5b91908080601f0160208091040260200160405190810160405280939291908181526020018383808284376000920191909152509295949360208101935035915050600160201b81111561040357600080fd5b82018360208201111561041557600080fd5b803590602001918460018302840111600160201b8311171561043657600080fd5b91908080601f016020809104026020016040519081016040528093929190818152602001838380828437600092019190915250929550610c82945050505050565b61047f611259565b005b6104896112ed565b604080516001600160a01b039092168252519081900360200190f35b6101786112fd565b610178600480360360208110156104c357600080fd5b810190602081018135600160201b8111156104dd57600080fd5b8201836020820111156104ef57600080fd5b803590602001918460018302840111600160201b8311171561051057600080fd5b91908080601f01602080910402602001604051908101604052809392919081815260200183838082843760009201919091525092955061130e945050505050565b6101786004803603604081101561056757600080fd5b810190602081018135600160201b81111561058157600080fd5b82018360208201111561059357600080fd5b803590602001918460018302840111600160201b831117156105b457600080fd5b91908080601f0160208091040260200160405190810160405280939291908181526020018383808284376000920191909152509295949360208101935035915050600160201b81111561060657600080fd5b82018360208201111561061857600080fd5b803590602001918460018302840111600160201b8311171561063957600080fd5b91908080601f01602080910402602001604051908101604052809392919081815260200183838082843760009201919091525092955061157e945050505050565b61071e6004803603602081101561069057600080fd5b810190602081018135600160201b8111156106aa57600080fd5b8201836020820111156106bc57600080fd5b803590602001918460018302840111600160201b831117156106dd57600080fd5b91908080601f016020809104026020016040519081016040528093929190818152602001838380828437600092019190915250929550611704945050505050565b6040518086151515158152602001856001600160a01b03166001600160a01b031681526020018060200184815260200180602001838103835286818151815260200191508051906020019080838360005b8381101561078757818101518382015260200161076f565b50505050905090810190601f1680156107b45780820380516001836020036101000a031916815260200191505b50838103825284518152845160209182019186019080838360005b838110156107e75781810151838201526020016107cf565b50505050905090810190601f1680156108145780820380516001836020036101000a031916815260200191505b5097505050505050505060405180910390f35b61047f6004803603602081101561083d57600080fd5b50356001600160a01b0316611cdd565b6102306004803603602081101561086357600080fd5b810190602081018135600160201b81111561087d57600080fd5b82018360208201111561088f57600080fd5b803590602001918460018302840111600160201b831117156108b057600080fd5b91908080601f016020809104026020016040519081016040528093929190818152602001838380828437600092019190915250929550611d33945050505050565b60006108fb6112fd565b61093d5760408051600160e51b62461bcd0281526020600482018190526024820152600080516020612e1a833981519152604482015290519081900360640190fd5b8151610950906003906020850190612bf4565b50600192915050565b606061097d6040518060200160405280600081525083611d9290919063ffffffff16565b1561098757600080fd5b6004826040518082805190602001908083835b602083106109b95780518252601f19909201916020918201910161099a565b518151600019602094850361010090810a820192831692199390931691909117909252949092019687526040805197889003820188208054601f6002600183161590980290950116959095049283018290048202880182019052818752929450925050830182828015610a6d5780601f10610a4257610100808354040283529160200191610a6d565b820191906000526020600020905b815481529060010190602001808311610a5057829003601f168201915b50505050509050919050565b6060600082519050606081604051908082528060200260200182016040528015610abd57816020015b610aaa612c72565b815260200190600190039081610aa25790505b50905060005b82811015610b2f576060610af4868381518110610adc57fe5b60200260200101516001611da690919063ffffffff16565b9050610aff81611e52565b838381518110610b0b57fe5b602090810291909101015250610b2881600163ffffffff611e7716565b9050610ac3565b506060610b6782610b5b604051806040016040528060018152602001600160fa1b600b02815250611e52565b9063ffffffff611edb16565b9050806040516020018080602001828103825283818151815260200191508051906020019080838360005b83811015610baa578181015183820152602001610b92565b50505050905090810190601f168015610bd75780820380516001836020036101000a031916815260200191505b5060408051601f1981840301815291905298975050505050505050565b6003805460408051602060026001851615610100026000190190941693909304601f81018490048402820184019092528181529291830182828015610c7a5780601f10610c4f57610100808354040283529160200191610c7a565b820191906000526020600020905b815481529060010190602001808311610c5d57829003601f168201915b505050505081565b6000610c8c6112fd565b610cce5760408051600160e51b62461bcd0281526020600482018190526024820152600080516020612e1a833981519152604482015290519081900360640190fd5b60608060006060808680602001905160a0811015610ceb57600080fd5b810190808051600160201b811115610d0257600080fd5b82016020810184811115610d1557600080fd5b8151600160201b811182820187101715610d2e57600080fd5b50509291906020018051600160201b811115610d4957600080fd5b82016020810184811115610d5c57600080fd5b8151600160201b811182820187101715610d7557600080fd5b50506020820151604090920180519194929391600160201b811115610d9957600080fd5b82016020810184811115610dac57600080fd5b8151600160201b811182820187101715610dc557600080fd5b50509291906020018051600160201b811115610de057600080fd5b82016020810184811115610df357600080fd5b8151600160201b811182820187101715610e0c57600080fd5b5050929190505050945094509450945094506000610e36898760016120089092919063ffffffff16565b905080610e4257600080fd5b8460068a6040518082805190602001908083835b60208310610e755780518252601f199092019160209182019101610e56565b51815160209384036101000a60001901801990921691161790529201948552506040519384900381019093208451610eb69591949190910192509050612bf4565b50610ebf612c72565b610ec884611e52565b9050610ed2612c72565b610edb84611e52565b9050610ee5612c72565b610f0a604051806040016040528060018152602001600160fa1b600b02815250611e52565b905060005b878110156110bf576060610f31610f2c868563ffffffff61222116565b61223b565b905060068e6040518082805190602001908083835b60208310610f655780518252601f199092019160209182019101610f46565b51815160209384036101000a600019018019909216911617905292019485525060405193849003810190932060020180546001810180835560009283529185902086519295610fbb955091019250850190612bf4565b50610fd19050610f2c858563ffffffff61222116565b60068f6040518082805190602001908083835b602083106110035780518252601f199092019160209182019101610fe4565b51815160209384036101000a600019018019909216911617905292019485525060405193849003810184208651600190910194879450925082918401908083835b602083106110635780518252601f199092019160209182019101611044565b51815160209384036101000a600019018019909216911617905292019485525060405193849003810190932084516110a49591949190910192509050612bf4565b506110b8905081600163ffffffff611e7716565b9050610f0f565b50336001600160a01b03167ff20f621499ba2e8c9b218d6bbbff34ac7d7be450fc2ac851d1b362dd4e40e9518d60068f6040518082805190602001908083835b6020831061111e5780518252601f1990920191602091820191016110ff565b51815160209384036101000a60001901801990921691161790529201948552506040805194859003820185208c1515918601919091526060808652865190860152855190948c94509250829182810191608084019188019080838360005b8381101561119457818101518382015260200161117c565b50505050905090810190601f1680156111c15780820380516001836020036101000a031916815260200191505b508381038252855460026000196101006001841615020190911604808252602090910190869080156112345780601f1061120957610100808354040283529160200191611234565b820191906000526020600020905b81548152906001019060200180831161121757829003601f168201915b50509550505050505060405180910390a2600199505050505050505050505b92915050565b6112616112fd565b6112a35760408051600160e51b62461bcd0281526020600482018190526024820152600080516020612e1a833981519152604482015290519081900360640190fd5b600080546040516001600160a01b03909116907f8be0079c531659141344cd1fd0a4f28419497f9722a3daafe3b4186f6b6457e0908390a3600080546001600160a01b0319169055565b6000546001600160a01b03165b90565b6000546001600160a01b0316331490565b60006113186112fd565b61135a5760408051600160e51b62461bcd0281526020600482018190526024820152600080516020612e1a833981519152604482015290519081900360640190fd5b600061136d60018463ffffffff61228b16565b905080156113f3576006836040518082805190602001908083835b602083106113a75780518252601f199092019160209182019101611388565b51815160209384036101000a600019018019909216911617905292019485525060405193849003019092209150600090506113e28282612c8c565b6113f0600283016000612cd0565b50505b336001600160a01b03167fdc341698ec84ad548b4adefc163b3cccb75a7770f400620aec2e234e7577e2dd846006866040518082805190602001908083835b602083106114515780518252601f199092019160209182019101611432565b51815160209384036101000a6000190180199092169116179052920194855250604080519485900382018520891515918601919091526060808652865190860152855190948994509250829182810191608084019188019080838360005b838110156114c75781810151838201526020016114af565b50505050905090810190601f1680156114f45780820380516001836020036101000a031916815260200191505b508381038252855460026000196101006001841615020190911604808252602090910190869080156115675780601f1061153c57610100808354040283529160200191611567565b820191906000526020600020905b81548152906001019060200180831161154a57829003601f168201915b50509550505050505060405180910390a292915050565b60006115886112fd565b6115ca5760408051600160e51b62461bcd0281526020600482018190526024820152600080516020612e1a833981519152604482015290519081900360640190fd5b6040805160208101909152600081526115ea90849063ffffffff611d9216565b156115f457600080fd5b61160560018463ffffffff6123c816565b61161157506000611253565b816004846040518082805190602001908083835b602083106116445780518252601f199092019160209182019101611625565b51815160209384036101000a600019018019909216911617905292019485525060405193849003810190932084516116859591949190910192509050612bf4565b50826005836040518082805190602001908083835b602083106116b95780518252601f19909201916020918201910161169a565b51815160209384036101000a600019018019909216911617905292019485525060405193849003810190932084516116fa9591949190910192509050612bf4565b5060019050611253565b6000806060600060606000611717612cee565b60006006896040518082805190602001908083835b6020831061174b5780518252601f19909201916020918201910161172c565b51815160209384036101000a6000190180199092169116179052920194855250604051938490030190922092506117879150600190508a61243b565b604086015260208501526001600160a01b03168352925060606117a98a610959565b600283015490915060608115611bf1576060826040519080825280602002602001820160405280156117f557816020015b6117e2612c72565b8152602001906001900390816117da5790505b50905060608360405190808252806020026020018201604052801561183457816020015b611821612c72565b8152602001906001900390816118195790505b509050606060005b85811015611a2c5787600201818154811061185357fe5b600091825260209182902001805460408051601f60026000196101006001871615020190941693909304928301859004850281018501909152818152928301828280156118e15780601f106118b6576101008083540402835291602001916118e1565b820191906000526020600020905b8154815290600101906020018083116118c457829003601f168201915b505050505091506118f182611e52565b8482815181106118fd57fe5b60200260200101819052506119fd88600101836040518082805190602001908083835b6020831061193f5780518252601f199092019160209182019101611920565b518151600019602094850361010090810a820192831692199390931691909117909252949092019687526040805197889003820188208054601f60026001831615909802909501169590950492830182900482028801820190528187529294509250508301828280156119f35780601f106119c8576101008083540402835291602001916119f3565b820191906000526020600020905b8154815290600101906020018083116119d657829003601f168201915b5050505050611e52565b838281518110611a0957fe5b6020908102919091010152611a2581600163ffffffff611e7716565b905061183c565b5087602001518760000186611a6086610b5b604051806040016040528060018152602001600160fa1b600b02815250611e52565b611a8986610b5b604051806040016040528060018152602001600160fa1b600b02815250611e52565b6040516020018086805190602001908083835b60208310611abb5780518252601f199092019160209182019101611a9c565b6001836020036101000a03801982511681845116808217855250505050505090500185805460018160011615610100020316600290048015611b345780601f10611b12576101008083540402835291820191611b34565b820191906000526020600020905b815481529060010190602001808311611b20575b505084815260200183805190602001908083835b60208310611b675780518252601f199092019160209182019101611b48565b51815160209384036101000a600019018019909216911617905285519190930192850191508083835b60208310611baf5780518252601f199092019160209182019101611b90565b6001836020036101000a038019825116818451168082178552505050505050905001955050505050506040516020818303038152906040529350505050611cc1565b846020015184600001836040516020018084805190602001908083835b60208310611c2d5780518252601f199092019160209182019101611c0e565b6001836020036101000a03801982511681845116808217855250505050505090500183805460018160011615610100020316600290048015611ca65780601f10611c84576101008083540402835291820191611ca6565b820191906000526020600020905b815481529060010190602001808311611c92575b50509182525060408051808303815260209092019052925050505b8451604090950151959c949b5099509397509550909350505050565b611ce56112fd565b611d275760408051600160e51b62461bcd0281526020600482018190526024820152600080516020612e1a833981519152604482015290519081900360640190fd5b611d30816126a7565b50565b6060611d576040518060200160405280600081525083611d9290919063ffffffff16565b15611d6157600080fd5b600582604051808280519060200190808383602083106109b95780518252601f19909201916020918201910161099a565b6000611d9e838361274a565b159392505050565b6060826001018281548110611db757fe5b600091825260209182902001805460408051601f6002600019610100600187161502019094169390930492830185900485028101850190915281815292830182828015611e455780601f10611e1a57610100808354040283529160200191611e45565b820191906000526020600020905b815481529060010190602001808311611e2857829003601f168201915b5050505050905092915050565b611e5a612c72565b506040805180820190915281518152602082810190820152919050565b600082820183811015611ed45760408051600160e51b62461bcd02815260206004820152601b60248201527f536166654d6174683a206164646974696f6e206f766572666c6f770000000000604482015290519081900360640190fd5b9392505050565b6060815160001415611efc5750604080516020810190915260008152611253565b815183516000199091010260005b8351811015611f3857838181518110611f1f57fe5b6020908102919091010151519190910190600101611f0a565b506060816040519080825280601f01601f191660200182016040528015611f66576020820181803883390190505b5090506020810160005b8551811015611ffd57611fb282878381518110611f8957fe5b602002602001015160200151888481518110611fa157fe5b602002602001015160000151612859565b858181518110611fbe57fe5b602002602001015160000151820191506001865103811015611ff557611fed8288602001518960000151612859565b865191909101905b600101611f70565b509095945050505050565b60008084600001846040518082805190602001908083835b6020831061203f5780518252601f199092019160209182019101612020565b6001836020036101000a038019825116818451168082178552505050505050905001915050908152602001604051809103902060020154111561208457506000611ed4565b3384600001846040518082805190602001908083835b602083106120b95780518252601f19909201916020918201910161209a565b51815160209384036101000a6000190180199092169116179052920194855250604051938490038101842080546001600160a01b0319166001600160a01b0396909616959095179094555050845142928792879290918291908401908083835b602083106121385780518252601f199092019160209182019101612119565b51815160209384036101000a60001901801990921691161790529201948552506040519384900381018420600201949094555050845184928792879290918291908401908083835b6020831061219f5780518252601f199092019160209182019101612180565b6001836020036101000a038019825116818451168082178552505050505050905001915050908152602001604051809103902060010190805190602001906121e8929190612bf4565b50600180850180549182018082556000918252602091829020865191936122159391019190870190612bf4565b50600195945050505050565b612229612c72565b612234838383612897565b5092915050565b60608082600001516040519080825280601f01601f19166020018201604052801561226d576020820181803883390190505b50905060006020820190506122348185602001518660000151612859565b60006122af6040518060200160405280600081525083611d9290919063ffffffff16565b156122b957600080fd5b600083600001836040518082805190602001908083835b602083106122ef5780518252601f1990920191602091820191016122d0565b6001836020036101000a03801982511681845116808217855250505050505090500191505090815260200160405180910390206002015411156123c05782600001826040518082805190602001908083835b602083106123605780518252601f199092019160209182019101612341565b51815160209384036101000a6000190180199092169116179052920194855250604051938490030190922080546001600160a01b03191681559150600090506123ac6001830182612c8c565b600282016000905550506116fa8383612908565b506000611253565b60008083600001836040518082805190602001908083835b602083106123ff5780518252601f1990920191602091820191016123e0565b51815160209384036101000a60001901801990921691161790529201948552506040519384900301909220600201549290921195945050505050565b600080606060008086600001866040518082805190602001908083835b602083106124775780518252601f199092019160209182019101612458565b6001836020036101000a038019825116818451168082178552505050505050905001915050908152602001604051809103902060020154111561268557600186600001866040518082805190602001908083835b602083106124ea5780518252601f1990920191602091820191016124cb565b51815160209384036101000a60001901801990921691161790529201948552506040519384900381018420548a516001600160a01b03909116948c94508b9350918291908401908083835b602083106125545780518252601f199092019160209182019101612535565b51815160209384036101000a600019018019909216911617905292019485525060405193849003810184208b516001909101948d94508c9350918291908401908083835b602083106125b75780518252601f199092019160209182019101612598565b518151600019602094850361010090810a820192831692199390931691909117909252949092019687526040805197889003820188206002908101548a54601f60018216159098029095019094160494850182900482028801820190528387529095945086935084019050828280156126715780601f1061264657610100808354040283529160200191612671565b820191906000526020600020905b81548152906001019060200180831161265457829003601f168201915b50505050509150935093509350935061269e565b5050604080516020810190915260008082529250829150815b92959194509250565b6001600160a01b0381166126ef57604051600160e51b62461bcd028152600401808060200182810382526026815260200180612df46026913960400191505060405180910390fd5b600080546040516001600160a01b03808516939216917f8be0079c531659141344cd1fd0a4f28419497f9722a3daafe3b4186f6b6457e091a3600080546001600160a01b0319166001600160a01b0392909216919091179055565b815181516000918491849190811115612761575080515b60005b8181101561281f5782818151811061277857fe5b602001015160f81c60f81b6001600160f81b03191684828151811061279957fe5b602001015160f81c60f81b6001600160f81b03191610156127c257600019945050505050611253565b8281815181106127ce57fe5b602001015160f81c60f81b6001600160f81b0319168482815181106127ef57fe5b602001015160f81c60f81b6001600160f81b0319161115612817576001945050505050611253565b600101612764565b50815183511015612837576000199350505050611253565b81518351111561284d5760019350505050611253565b60009350505050611253565b5b60208110612879578151835260209283019290910190601f190161285a565b905182516020929092036101000a6000190180199091169116179052565b61289f612c72565b60006128bd8560000151866020015186600001518760200151612ad7565b602080870180519186019190915280518203855286519051919250018114156128e957600085526128ff565b8351835186519101900385528351810160208601525b50909392505050565b6000805b60018401548110156129ee576129cc8385600101838154811061292b57fe5b600091825260209182902001805460408051601f60026000196101006001871615020190941693909304928301859004850281018501909152818152928301828280156129b95780601f1061298e576101008083540402835291602001916129b9565b820191906000526020600020905b81548152906001019060200180831161299c57829003601f168201915b5050505050611d9290919063ffffffff16565b156129d6576129ee565b6129e781600163ffffffff611e7716565b905061290c565b60018401548110612a03576000915050611253565b600184810154600091612a1c919063ffffffff612b9416565b90505b80821015612aa45784600101612a3f600184611e7790919063ffffffff16565b81548110612a4957fe5b90600052602060002001856001018381548110612a6257fe5b906000526020600020019080546001816001161561010002031660029004612a8b929190612d18565b50612a9d82600163ffffffff611e7716565b9150612a1f565b846001018181548110612ab357fe5b906000526020600020016000612ac99190612c8c565b806122156001870182612d8d565b60008381868511612b855760208511612b4a5783518251600019600860208990030260020a011991821690888a018890039083165b828114612b3c57818610612b2a578a8a019650505050505050612b8c565b50600190940180519094908316612b0c565b859650505050505050612b8c565b508383206000905b8588038211612b835785832081811415612b725783945050505050612b8c565b506001928301929190910190612b52565b505b5050508284015b949350505050565b600082821115612bee5760408051600160e51b62461bcd02815260206004820152601e60248201527f536166654d6174683a207375627472616374696f6e206f766572666c6f770000604482015290519081900360640190fd5b50900390565b828054600181600116156101000203166002900490600052602060002090601f016020900481019282601f10612c3557805160ff1916838001178555612c62565b82800160010185558215612c62579182015b82811115612c62578251825591602001919060010190612c47565b50612c6e929150612db6565b5090565b604051806040016040528060008152602001600081525090565b50805460018160011615610100020316600290046000825580601f10612cb25750611d30565b601f016020900490600052602060002090810190611d309190612db6565b5080546000825590600052602060002090810190611d309190612dd0565b604051806060016040528060006001600160a01b0316815260200160608152602001600081525090565b828054600181600116156101000203166002900490600052602060002090601f016020900481019282601f10612d515780548555612c62565b82800160010185558215612c6257600052602060002091601f016020900482015b82811115612c62578254825591600101919060010190612d72565b815481835581811115612db157600083815260209020612db1918101908301612dd0565b505050565b6112fa91905b80821115612c6e5760008155600101612dbc565b6112fa91905b80821115612c6e576000612dea8282612c8c565b50600101612dd656fe4f776e61626c653a206e6577206f776e657220697320746865207a65726f20616464726573734f776e61626c653a2063616c6c6572206973206e6f7420746865206f776e6572a165627a7a72305820d6ee90f21dae41e731504c937bc5c2feb769bcf67aa2e6c10a3a3e8006be95d60029",
  "source": "pragma solidity >=0.4.22 <0.7.0;\r\n\r\n\r\nimport \"./HashBaseCon.sol\";\r\nimport \"../solidity-lib/utils/StringUtils.sol\";\r\nimport \"../solidity-stringutils/src/strings.sol\";\r\n\r\n\r\n/**\r\n * This contract will take charge of submitting DD result hash to blockchain\r\n *\r\n */\r\ncontract DRCDDHashCon is DRCHashBase {\r\n  using StringUtils for string;\r\n  using strings for *;\r\n\r\n  struct DDInfo {\r\n    string ddTask;\r\n    mapping(string => string) ddersHashInfo; // could be empty\r\n    string[] dderNames; // could be empty\r\n  }\r\n\r\n  mapping(string => DDInfo) private ddHashInfo;\r\n\r\n  event LogInsertDDHash(address indexed _operator, string _hash, string _ddTask, bool _bool);\r\n  event LogDeleteDDHash(address indexed _operator, string _hash, string _ddTask, bool _bool);\r\n\r\n  /**\r\n   * @dev Constructor,not used just reserved\r\n   */\r\n  constructor() public {\r\n  }\r\n\r\n  // function splitStrs(string memory _orig, string memory _spliter, string[] storage outStrs) internal returns (bool) {\r\n  //   strings.slice memory origSlices = _orig.toSlice();\r\n  //   strings.slice memory delim = _spliter.toSlice();\r\n    \r\n  //   for(uint i = 0; i < outStrs.length; i = i.add(1)) {\r\n  //     outStrs[i] = origSlices.split(delim).toString();\r\n  //   }\r\n\r\n  //   return true;\r\n  // }\r\n\r\n  /**\r\n   * @dev insertHash,insert hash into contract\r\n   * @param _hash is input value of hash\r\n   * @param _uploadedData is the additional data being uploaded to the contract\r\n   * @return bool,true is successful and false is failed\r\n   */\r\n  function insertHash(string memory _hash, bytes memory _uploadedData) \r\n    public \r\n    onlyOwner \r\n    returns (bool) \r\n  {\r\n    (\r\n      string memory _saverName, \r\n      string memory _ddTaskName,\r\n      uint256 ddersNum,\r\n      string memory dders,\r\n      string memory ddersHashStrs\r\n    ) = abi.decode(_uploadedData, (string, string, uint256, string, string));\r\n\r\n    bool res = hashInfoLib.insertHash(_hash, _saverName);\r\n    require(res);\r\n    ddHashInfo[_hash].ddTask = _ddTaskName; \r\n\r\n    strings.slice memory ddersSlice = dders.toSlice();\r\n    strings.slice memory ddersHashSlice = ddersHashStrs.toSlice();\r\n    strings.slice memory delim = \",\".toSlice();\r\n\r\n    for (uint i = 0; i < ddersNum; i = i.add(1)) {\r\n      string memory tmpDDer = ddersSlice.split(delim).toString();\r\n      ddHashInfo[_hash].dderNames.push(tmpDDer);\r\n      ddHashInfo[_hash].ddersHashInfo[tmpDDer] = ddersHashSlice.split(delim).toString();\r\n    }\r\n\r\n    emit LogInsertDDHash(msg.sender, _hash, ddHashInfo[_hash].ddTask, res);\r\n    return true;\r\n  }\r\n\r\n  /**\r\n   * @dev selectHash,select hash from contract\r\n   * @param _hash is input value of hash\r\n   * @return true/false,saver,save time\r\n   */\r\n  function selectHash(string memory _hash) \r\n    public \r\n    view \r\n    returns (bool, address, bytes memory, uint256, string memory) \r\n  {\r\n    bool selectRes;\r\n    HashOperateLib.ExInfo memory exInfo;\r\n\r\n    DDInfo storage _ddInfo = ddHashInfo[_hash];\r\n    (selectRes, exInfo.saver, exInfo.saverName, exInfo.saveTime) = hashInfoLib.selectHash(_hash);\r\n    string memory selectTxHash = getTxIdByHash(_hash);\r\n\r\n    uint len = _ddInfo.dderNames.length;\r\n    bytes memory selectData;\r\n    if (len > 0) {\r\n      strings.slice[] memory ddersNameList = new strings.slice[](len);\r\n      strings.slice[] memory ddersHashList = new strings.slice[](len);\r\n\r\n      string memory tempDDerName;\r\n      for (uint i = 0; i < len; i = i.add(1)) {\r\n        tempDDerName = _ddInfo.dderNames[i];\r\n        ddersNameList[i] = tempDDerName.toSlice();\r\n        ddersHashList[i] = _ddInfo.ddersHashInfo[tempDDerName].toSlice();\r\n      }\r\n      // string memory ddersNameStr = \",\".toSlice().join(ddersNameList);\r\n      // string memory ddersHashStr = \",\".toSlice().join(ddersHashList);\r\n\r\n      selectData = abi.encodePacked(\r\n        exInfo.saverName,\r\n        _ddInfo.ddTask,\r\n        len,\r\n        \",\".toSlice().join(ddersNameList),\r\n        \",\".toSlice().join(ddersHashList)\r\n      );\r\n    } else {\r\n      selectData = abi.encodePacked(\r\n        exInfo.saverName,\r\n        _ddInfo.ddTask,\r\n        len,\r\n        \"\",\r\n        \"\"\r\n      );\r\n    }\r\n\r\n    return (\r\n      selectRes, \r\n      exInfo.saver, \r\n      selectData,\r\n      exInfo.saveTime,\r\n      selectTxHash\r\n    );\r\n  }\r\n\r\n  /**\r\n   * @dev deleteHash,delete hash into contract\r\n   * @param _hash is input value of hash\r\n   * @return bool,true is successful and false is failed\r\n   */\r\n  function deleteHash(string memory _hash) public onlyOwner returns (bool) {\r\n    bool res = hashInfoLib.deleteHash(_hash);\r\n    if (res) \r\n      delete ddHashInfo[_hash];\r\n      \r\n    emit LogDeleteDDHash(msg.sender, _hash, ddHashInfo[_hash].ddTask, res);\r\n\r\n    return res;\r\n  }\r\n\r\n}",
  "sourcePath": "E:/workspace/Dapp-DRCHash/contracts/DDHashCon.sol",
  "compiler": {
    "name": "solc",
    "version": "0.5.8+commit.23d335f2.Emscripten.clang"
  },
  "schemaVersion": "3.0.10",
  "updatedAt": "2019-06-12T09:03:32.964Z",
  "devdoc": {
    "methods": {
      "addTxIdForOnchainData(string,string)": {
        "details": "add Tx hash for the hash string uploaded to blockchain\r",
        "params": {
          "_hash": "is input value of hash\r",
          "_txHash": "is the Tx hash value generated by action of inserting hash\r"
        },
        "return": "bool,true is successful and false is failed\r"
      },
      "constructor": {
        "details": "Constructor,not used just reserved\r"
      },
      "deleteHash(string)": {
        "details": "deleteHash,delete hash into contract\r",
        "params": {
          "_hash": "is input value of hash\r"
        },
        "return": "bool,true is successful and false is failed\r"
      },
      "getHashByTxId(string)": {
        "details": "get inserted hash string by the Tx hash\r",
        "params": {
          "_txHash": "is input value of Tx hash\r"
        },
        "return": "is the hash string corresponding to the Tx hash\r"
      },
      "getInsertedHashGroup(uint256[])": {
        "details": "get a group of Tx hashs for the hash strings uploaded to blockchain\r",
        "params": {
          "_indices": "is array of the index of the Tx hash group\r"
        },
        "return": "is the Tx hash value generated by action of inserting hash\r"
      },
      "getTxIdByHash(string)": {
        "details": "get Tx hash for the hash string uploaded to blockchain\r",
        "params": {
          "_hash": "is input value of hash\r"
        },
        "return": "is the Tx hash value generated by action of inserting hash\r"
      },
      "insertHash(string,bytes)": {
        "details": "insertHash,insert hash into contract\r",
        "params": {
          "_hash": "is input value of hash\r",
          "_uploadedData": "is the additional data being uploaded to the contract\r"
        },
        "return": "bool,true is successful and false is failed\r"
      },
      "isOwner()": {
        "details": "Returns true if the caller is the current owner."
      },
      "owner()": {
        "details": "Returns the address of the current owner."
      },
      "renounceOwnership()": {
        "details": "Leaves the contract without owner. It will not be possible to call `onlyOwner` functions anymore. Can only be called by the current owner.     * > Note: Renouncing ownership will leave the contract without an owner, thereby removing any functionality that is only available to the owner."
      },
      "selectHash(string)": {
        "details": "selectHash,select hash from contract\r",
        "params": {
          "_hash": "is input value of hash\r"
        },
        "return": "true/false,saver,save time\r"
      },
      "setMemo(string)": {
        "details": "set the memo to describe the objective of the contract\r"
      },
      "transferOwnership(address)": {
        "details": "Transfers ownership of the contract to a new account (`newOwner`). Can only be called by the current owner."
      }
    }
  },
  "userdoc": {
    "methods": {},
    "notice": "This contract will take charge of submitting DD result hash to blockchain\r  "
  }
}