{
  "contractName": "DRCMediaHashCon",
  "abi": [
    {
      "constant": false,
      "inputs": [
        {
          "name": "_memoStr",
          "type": "string"
        }
      ],
      "name": "setMemo",
      "outputs": [
        {
          "name": "",
          "type": "bool"
        }
      ],
      "payable": false,
      "stateMutability": "nonpayable",
      "type": "function"
    },
    {
      "constant": true,
      "inputs": [
        {
          "name": "_hash",
          "type": "string"
        }
      ],
      "name": "getTxIdByHash",
      "outputs": [
        {
          "name": "",
          "type": "string"
        }
      ],
      "payable": false,
      "stateMutability": "view",
      "type": "function"
    },
    {
      "constant": true,
      "inputs": [
        {
          "name": "_indices",
          "type": "uint256[]"
        }
      ],
      "name": "getInsertedHashGroup",
      "outputs": [
        {
          "name": "",
          "type": "bytes"
        }
      ],
      "payable": false,
      "stateMutability": "view",
      "type": "function"
    },
    {
      "constant": true,
      "inputs": [],
      "name": "memo",
      "outputs": [
        {
          "name": "",
          "type": "string"
        }
      ],
      "payable": false,
      "stateMutability": "view",
      "type": "function"
    },
    {
      "constant": false,
      "inputs": [],
      "name": "renounceOwnership",
      "outputs": [],
      "payable": false,
      "stateMutability": "nonpayable",
      "type": "function"
    },
    {
      "constant": true,
      "inputs": [],
      "name": "owner",
      "outputs": [
        {
          "name": "",
          "type": "address"
        }
      ],
      "payable": false,
      "stateMutability": "view",
      "type": "function"
    },
    {
      "constant": true,
      "inputs": [],
      "name": "isOwner",
      "outputs": [
        {
          "name": "",
          "type": "bool"
        }
      ],
      "payable": false,
      "stateMutability": "view",
      "type": "function"
    },
    {
      "constant": false,
      "inputs": [
        {
          "name": "_hash",
          "type": "string"
        },
        {
          "name": "_txHash",
          "type": "string"
        }
      ],
      "name": "addTxIdForOnchainData",
      "outputs": [
        {
          "name": "",
          "type": "bool"
        }
      ],
      "payable": false,
      "stateMutability": "nonpayable",
      "type": "function"
    },
    {
      "constant": false,
      "inputs": [
        {
          "name": "newOwner",
          "type": "address"
        }
      ],
      "name": "transferOwnership",
      "outputs": [],
      "payable": false,
      "stateMutability": "nonpayable",
      "type": "function"
    },
    {
      "constant": true,
      "inputs": [
        {
          "name": "_txHash",
          "type": "string"
        }
      ],
      "name": "getHashByTxId",
      "outputs": [
        {
          "name": "",
          "type": "string"
        }
      ],
      "payable": false,
      "stateMutability": "view",
      "type": "function"
    },
    {
      "inputs": [],
      "payable": false,
      "stateMutability": "nonpayable",
      "type": "constructor"
    },
    {
      "anonymous": false,
      "inputs": [
        {
          "indexed": true,
          "name": "_operator",
          "type": "address"
        },
        {
          "indexed": false,
          "name": "_hash",
          "type": "string"
        },
        {
          "indexed": false,
          "name": "_mediaName",
          "type": "string"
        },
        {
          "indexed": false,
          "name": "_mediaUrl",
          "type": "string"
        },
        {
          "indexed": false,
          "name": "_mediaType",
          "type": "string"
        },
        {
          "indexed": false,
          "name": "_bool",
          "type": "bool"
        }
      ],
      "name": "LogInsertMediaHash",
      "type": "event"
    },
    {
      "anonymous": false,
      "inputs": [
        {
          "indexed": true,
          "name": "_operator",
          "type": "address"
        },
        {
          "indexed": false,
          "name": "_hash",
          "type": "string"
        },
        {
          "indexed": false,
          "name": "_mediaName",
          "type": "string"
        },
        {
          "indexed": false,
          "name": "_mediaUrl",
          "type": "string"
        },
        {
          "indexed": false,
          "name": "_mediaType",
          "type": "string"
        },
        {
          "indexed": false,
          "name": "_bool",
          "type": "bool"
        }
      ],
      "name": "LogDeleteMediaHash",
      "type": "event"
    },
    {
      "anonymous": false,
      "inputs": [
        {
          "indexed": true,
          "name": "previousOwner",
          "type": "address"
        },
        {
          "indexed": true,
          "name": "newOwner",
          "type": "address"
        }
      ],
      "name": "OwnershipTransferred",
      "type": "event"
    },
    {
      "constant": false,
      "inputs": [
        {
          "name": "_hash",
          "type": "string"
        },
        {
          "name": "_uploadedData",
          "type": "bytes"
        }
      ],
      "name": "insertHash",
      "outputs": [
        {
          "name": "",
          "type": "bool"
        }
      ],
      "payable": false,
      "stateMutability": "nonpayable",
      "type": "function"
    },
    {
      "constant": true,
      "inputs": [
        {
          "name": "_hash",
          "type": "string"
        }
      ],
      "name": "selectHash",
      "outputs": [
        {
          "name": "",
          "type": "bool"
        },
        {
          "name": "",
          "type": "address"
        },
        {
          "name": "",
          "type": "bytes"
        },
        {
          "name": "",
          "type": "uint256"
        },
        {
          "name": "",
          "type": "string"
        }
      ],
      "payable": false,
      "stateMutability": "view",
      "type": "function"
    },
    {
      "constant": false,
      "inputs": [
        {
          "name": "_hash",
          "type": "string"
        }
      ],
      "name": "deleteHash",
      "outputs": [
        {
          "name": "",
          "type": "bool"
        }
      ],
      "payable": false,
      "stateMutability": "nonpayable",
      "type": "function"
    }
  ],
  "bytecode": "0x608060405234801561001057600080fd5b50600080546001600160a01b03191633178082556040516001600160a01b039190911691907f8be0079c531659141344cd1fd0a4f28419497f9722a3daafe3b4186f6b6457e0908290a3612d2b806100696000396000f3fe608060405234801561001057600080fd5b50600436106100cf5760003560e01c80638da5cb5b1161008c578063be76054b11610066578063be76054b14610551578063d951707e1461067a578063f2fde38b14610827578063f7941ccf1461084d576100cf565b80638da5cb5b146104815780638f32d59b146104a5578063a856481c146104ad576100cf565b806325d60861146100d45780634017afdc1461018c5780635756400a146102a557806358c3b8701461034657806358c933cf1461034e578063715018a614610477575b600080fd5b610178600480360360208110156100ea57600080fd5b810190602081018135600160201b81111561010457600080fd5b82018360208201111561011657600080fd5b803590602001918460018302840111600160201b8311171561013757600080fd5b91908080601f0160208091040260200160405190810160405280939291908181526020018383808284376000920191909152509295506108f1945050505050565b604080519115158252519081900360200190f35b610230600480360360208110156101a257600080fd5b810190602081018135600160201b8111156101bc57600080fd5b8201836020820111156101ce57600080fd5b803590602001918460018302840111600160201b831117156101ef57600080fd5b91908080601f01602080910402602001604051908101604052809392919081815260200183838082843760009201919091525092955061095b945050505050565b6040805160208082528351818301528351919283929083019185019080838360005b8381101561026a578181015183820152602001610252565b50505050905090810190601f1680156102975780820380516001836020036101000a031916815260200191505b509250505060405180910390f35b610230600480360360208110156102bb57600080fd5b810190602081018135600160201b8111156102d557600080fd5b8201836020820111156102e757600080fd5b803590602001918460208302840111600160201b8311171561030857600080fd5b919080806020026020016040519081016040528093929190818152602001838360200280828437600092019190915250929550610a7b945050505050565b610230610bf6565b6101786004803603604081101561036457600080fd5b810190602081018135600160201b81111561037e57600080fd5b82018360208201111561039057600080fd5b803590602001918460018302840111600160201b831117156103b157600080fd5b91908080601f0160208091040260200160405190810160405280939291908181526020018383808284376000920191909152509295949360208101935035915050600160201b81111561040357600080fd5b82018360208201111561041557600080fd5b803590602001918460018302840111600160201b8311171561043657600080fd5b91908080601f016020809104026020016040519081016040528093929190818152602001838380828437600092019190915250929550610c84945050505050565b61047f6112c9565b005b61048961135d565b604080516001600160a01b039092168252519081900360200190f35b61017861136d565b610178600480360360208110156104c357600080fd5b810190602081018135600160201b8111156104dd57600080fd5b8201836020820111156104ef57600080fd5b803590602001918460018302840111600160201b8311171561051057600080fd5b91908080601f01602080910402602001604051908101604052809392919081815260200183838082843760009201919091525092955061137e945050505050565b6101786004803603604081101561056757600080fd5b810190602081018135600160201b81111561058157600080fd5b82018360208201111561059357600080fd5b803590602001918460018302840111600160201b831117156105b457600080fd5b91908080601f0160208091040260200160405190810160405280939291908181526020018383808284376000920191909152509295949360208101935035915050600160201b81111561060657600080fd5b82018360208201111561061857600080fd5b803590602001918460018302840111600160201b8311171561063957600080fd5b91908080601f016020809104026020016040519081016040528093929190818152602001838380828437600092019190915250929550611786945050505050565b61071e6004803603602081101561069057600080fd5b810190602081018135600160201b8111156106aa57600080fd5b8201836020820111156106bc57600080fd5b803590602001918460018302840111600160201b831117156106dd57600080fd5b91908080601f01602080910402602001604051908101604052809392919081815260200183838082843760009201919091525092955061190c945050505050565b6040518086151515158152602001856001600160a01b03166001600160a01b031681526020018060200184815260200180602001838103835286818151815260200191508051906020019080838360005b8381101561078757818101518382015260200161076f565b50505050905090810190601f1680156107b45780820380516001836020036101000a031916815260200191505b50838103825284518152845160209182019186019080838360005b838110156107e75781810151838201526020016107cf565b50505050905090810190601f1680156108145780820380516001836020036101000a031916815260200191505b5097505050505050505060405180910390f35b61047f6004803603602081101561083d57600080fd5b50356001600160a01b0316611c95565b6102306004803603602081101561086357600080fd5b810190602081018135600160201b81111561087d57600080fd5b82018360208201111561088f57600080fd5b803590602001918460018302840111600160201b831117156108b057600080fd5b91908080601f016020809104026020016040519081016040528093929190818152602001838380828437600092019190915250929550611ceb945050505050565b60006108fb61136d565b61093d5760408051600160e51b62461bcd0281526020600482018190526024820152600080516020612ce0833981519152604482015290519081900360640190fd5b8151610950906003906020850190612ad8565b50600190505b919050565b606061097f6040518060200160405280600081525083611d4a90919063ffffffff16565b1561098957600080fd5b6004826040518082805190602001908083835b602083106109bb5780518252601f19909201916020918201910161099c565b518151600019602094850361010090810a820192831692199390931691909117909252949092019687526040805197889003820188208054601f6002600183161590980290950116959095049283018290048202880182019052818752929450925050830182828015610a6f5780601f10610a4457610100808354040283529160200191610a6f565b820191906000526020600020905b815481529060010190602001808311610a5257829003601f168201915b50505050509050919050565b6060600082519050606081604051908082528060200260200182016040528015610abf57816020015b610aac612b56565b815260200190600190039081610aa45790505b50905060005b82811015610b31576060610af6868381518110610ade57fe5b60200260200101516001611d5e90919063ffffffff16565b9050610b0181611e0a565b838381518110610b0d57fe5b602090810291909101015250610b2a81600163ffffffff611e2f16565b9050610ac5565b506060610b6982610b5d604051806040016040528060018152602001600160fa1b600b02815250611e0a565b9063ffffffff611e9316565b9050806040516020018080602001828103825283818151815260200191508051906020019080838360005b83811015610bac578181015183820152602001610b94565b50505050905090810190601f168015610bd95780820380516001836020036101000a031916815260200191505b5060408051601f1981840301815291905298975050505050505050565b6003805460408051602060026001851615610100026000190190941693909304601f81018490048402820184019092528181529291830182828015610c7c5780601f10610c5157610100808354040283529160200191610c7c565b820191906000526020600020905b815481529060010190602001808311610c5f57829003601f168201915b505050505081565b6000610c8e61136d565b610cd05760408051600160e51b62461bcd0281526020600482018190526024820152600080516020612ce0833981519152604482015290519081900360640190fd5b604080516020810190915260008152610cf090849063ffffffff611d4a16565b15610cfa57600080fd5b60608060608060008680602001905160a0811015610d1757600080fd5b810190808051600160201b811115610d2e57600080fd5b82016020810184811115610d4157600080fd5b8151600160201b811182820187101715610d5a57600080fd5b50509291906020018051600160201b811115610d7557600080fd5b82016020810184811115610d8857600080fd5b8151600160201b811182820187101715610da157600080fd5b50509291906020018051600160201b811115610dbc57600080fd5b82016020810184811115610dcf57600080fd5b8151600160201b811182820187101715610de857600080fd5b50509291906020018051600160201b811115610e0357600080fd5b82016020810184811115610e1657600080fd5b8151600160201b811182820187101715610e2f57600080fd5b5050602090910151959a5093985091965091945091925060009150610e5e905060018a8863ffffffff611fc016565b905080610e6a57600080fd5b6040518060800160405280868152602001858152602001848152602001836002811115610e9357fe5b6002811115610e9e57fe5b81525060068a6040518082805190602001908083835b60208310610ed35780518252601f199092019160209182019101610eb4565b51815160209384036101000a6000190180199092169116179052920194855250604051938490038101909320845180519194610f1494508593500190612ad8565b506020828101518051610f2d9260018501920190612ad8565b5060408201518051610f49916002840191602090910190612ad8565b50606082015160038201805460ff19166001836002811115610f6757fe5b0217905550905050336001600160a01b03167fa16602404c3938a3129e4102bfbff3f787e835f4289945fae6fb772fbd1c0cba8a60068c6040518082805190602001908083835b60208310610fcd5780518252601f199092019160209182019101610fae565b6001836020036101000a038019825116818451168082178552505050505050905001915050908152602001604051809103902060000160068d6040518082805190602001908083835b602083106110355780518252601f199092019160209182019101611016565b6001836020036101000a03801982511681845116808217855250505050505090500191505090815260200160405180910390206001016110db60068f6040518082805190602001908083835b602083106110a05780518252601f199092019160209182019101611081565b51815160209384036101000a600019018019909216911617905292019485525060405193849003019092206003015460ff1691506121d99050565b8660405180806020018060200180602001806020018615151515815260200185810385528a818151815260200191508051906020019080838360005b8381101561112f578181015183820152602001611117565b50505050905090810190601f16801561115c5780820380516001836020036101000a031916815260200191505b5085810384528954600260001961010060018416150201909116048082526020909101908a9080156111cf5780601f106111a4576101008083540402835291602001916111cf565b820191906000526020600020905b8154815290600101906020018083116111b257829003601f168201915b50508581038352885460026000196101006001841615020190911604808252602090910190899080156112435780601f1061121857610100808354040283529160200191611243565b820191906000526020600020905b81548152906001019060200180831161122657829003601f168201915b5050858103825287518152875160209182019189019080838360005b8381101561127757818101518382015260200161125f565b50505050905090810190601f1680156112a45780820380516001836020036101000a031916815260200191505b50995050505050505050505060405180910390a2600196505050505050505b92915050565b6112d161136d565b6113135760408051600160e51b62461bcd0281526020600482018190526024820152600080516020612ce0833981519152604482015290519081900360640190fd5b600080546040516001600160a01b03909116907f8be0079c531659141344cd1fd0a4f28419497f9722a3daafe3b4186f6b6457e0908390a3600080546001600160a01b0319169055565b6000546001600160a01b03165b90565b6000546001600160a01b0316331490565b600061138861136d565b6113ca5760408051600160e51b62461bcd0281526020600482018190526024820152600080516020612ce0833981519152604482015290519081900360640190fd5b60006113dd60018463ffffffff61229d16565b9050801561147b576006836040518082805190602001908083835b602083106114175780518252601f1990920191602091820191016113f8565b51815160209384036101000a600019018019909216911617905292019485525060405193849003019092209150600090506114528282612b70565b611460600183016000612b70565b61146e600283016000612b70565b50600301805460ff191690555b336001600160a01b03167f119c4a24b89b6a41ce410058d9291d68f0e65e25fb0c7c2b9b2916ff900c1db9846006866040518082805190602001908083835b602083106114d95780518252601f1990920191602091820191016114ba565b51815160209384036101000a600019018019909216911617905292019485525060405193849003810184208a519094600694508b9350918291908401908083835b602083106115395780518252601f19909201916020918201910161151a565b6001836020036101000a03801982511681845116808217855250505050505090500191505090815260200160405180910390206001016115a3600689604051808280519060200190808383602083106110a05780518252601f199092019160209182019101611081565b8660405180806020018060200180602001806020018615151515815260200185810385528a818151815260200191508051906020019080838360005b838110156115f75781810151838201526020016115df565b50505050905090810190601f1680156116245780820380516001836020036101000a031916815260200191505b5085810384528954600260001961010060018416150201909116048082526020909101908a9080156116975780601f1061166c57610100808354040283529160200191611697565b820191906000526020600020905b81548152906001019060200180831161167a57829003601f168201915b505085810383528854600260001961010060018416150201909116048082526020909101908990801561170b5780601f106116e05761010080835404028352916020019161170b565b820191906000526020600020905b8154815290600101906020018083116116ee57829003601f168201915b5050858103825287518152875160209182019189019080838360005b8381101561173f578181015183820152602001611727565b50505050905090810190601f16801561176c5780820380516001836020036101000a031916815260200191505b50995050505050505050505060405180910390a292915050565b600061179061136d565b6117d25760408051600160e51b62461bcd0281526020600482018190526024820152600080516020612ce0833981519152604482015290519081900360640190fd5b6040805160208101909152600081526117f290849063ffffffff611d4a16565b156117fc57600080fd5b61180d60018463ffffffff6123da16565b611819575060006112c3565b816004846040518082805190602001908083835b6020831061184c5780518252601f19909201916020918201910161182d565b51815160209384036101000a6000190180199092169116179052920194855250604051938490038101909320845161188d9591949190910192509050612ad8565b50826005836040518082805190602001908083835b602083106118c15780518252601f1990920191602091820191016118a2565b51815160209384036101000a600019018019909216911617905292019485525060405193849003810190932084516119029591949190910192509050612ad8565b50600190506112c3565b600080606060006060600061191f612bb4565b61193060018963ffffffff61244d16565b604085015260208401526001600160a01b03168252915060606119528961095b565b90506060826020015160068b6040518082805190602001908083835b6020831061198d5780518252601f19909201916020918201910161196e565b6001836020036101000a038019825116818451168082178552505050505050905001915050908152602001604051809103902060000160068c6040518082805190602001908083835b602083106119f55780518252601f1990920191602091820191016119d6565b6001836020036101000a038019825116818451168082178552505050505050905001915050908152602001604051809103902060010160068d6040518082805190602001908083835b60208310611a5d5780518252601f199092019160209182019101611a3e565b6001836020036101000a038019825116818451168082178552505050505050905001915050908152602001604051809103902060020160068e6040518082805190602001908083835b60208310611ac55780518252601f199092019160209182019101611aa6565b51815160209384036101000a600019018019909216911617905292019485525060405193849003019092206003015460ff169150506002811115611b0557fe5b6040516020018086805190602001908083835b60208310611b375780518252601f199092019160209182019101611b18565b6001836020036101000a03801982511681845116808217855250505050505090500185805460018160011615610100020316600290048015611bb05780601f10611b8e576101008083540402835291820191611bb0565b820191906000526020600020905b815481529060010190602001808311611b9c575b505084805460018160011615610100020316600290048015611c095780601f10611be7576101008083540402835291820191611c09565b820191906000526020600020905b815481529060010190602001808311611bf5575b505083805460018160011615610100020316600290048015611c625780601f10611c40576101008083540402835291820191611c62565b820191906000526020600020905b815481529060010190602001808311611c4e575b505091825250604080518083038152602090920181528851980151989f979e509c50969a50939850939650505050505050565b611c9d61136d565b611cdf5760408051600160e51b62461bcd0281526020600482018190526024820152600080516020612ce0833981519152604482015290519081900360640190fd5b611ce8816126b9565b50565b6060611d0f6040518060200160405280600081525083611d4a90919063ffffffff16565b15611d1957600080fd5b600582604051808280519060200190808383602083106109bb5780518252601f19909201916020918201910161099c565b6000611d56838361275c565b159392505050565b6060826001018281548110611d6f57fe5b600091825260209182902001805460408051601f6002600019610100600187161502019094169390930492830185900485028101850190915281815292830182828015611dfd5780601f10611dd257610100808354040283529160200191611dfd565b820191906000526020600020905b815481529060010190602001808311611de057829003601f168201915b5050505050905092915050565b611e12612b56565b506040805180820190915281518152602082810190820152919050565b600082820183811015611e8c5760408051600160e51b62461bcd02815260206004820152601b60248201527f536166654d6174683a206164646974696f6e206f766572666c6f770000000000604482015290519081900360640190fd5b9392505050565b6060815160001415611eb457506040805160208101909152600081526112c3565b815183516000199091010260005b8351811015611ef057838181518110611ed757fe5b6020908102919091010151519190910190600101611ec2565b506060816040519080825280601f01601f191660200182016040528015611f1e576020820181803883390190505b5090506020810160005b8551811015611fb557611f6a82878381518110611f4157fe5b602002602001015160200151888481518110611f5957fe5b60200260200101516000015161286b565b858181518110611f7657fe5b602002602001015160000151820191506001865103811015611fad57611fa5828860200151896000015161286b565b865191909101905b600101611f28565b509095945050505050565b60008084600001846040518082805190602001908083835b60208310611ff75780518252601f199092019160209182019101611fd8565b6001836020036101000a038019825116818451168082178552505050505050905001915050908152602001604051809103902060020154111561203c57506000611e8c565b3384600001846040518082805190602001908083835b602083106120715780518252601f199092019160209182019101612052565b51815160209384036101000a6000190180199092169116179052920194855250604051938490038101842080546001600160a01b0319166001600160a01b0396909616959095179094555050845142928792879290918291908401908083835b602083106120f05780518252601f1990920191602091820191016120d1565b51815160209384036101000a60001901801990921691161790529201948552506040519384900381018420600201949094555050845184928792879290918291908401908083835b602083106121575780518252601f199092019160209182019101612138565b6001836020036101000a038019825116818451168082178552505050505050905001915050908152602001604051809103902060010190805190602001906121a0929190612ad8565b50600180850180549182018082556000918252602091829020865191936121cd9391019190870190612ad8565b50600195945050505050565b606060008260028111156121e957fe5b141561221657506040805180820190915260078152600160c81b6641727469636c65026020820152610956565b600182600281111561222457fe5b141561224f57506040805180820190915260058152600160d81b64417564696f026020820152610956565b600282600281111561225d57fe5b141561228857506040805180820190915260058152600160d81b64566964656f026020820152610956565b50604080516020810190915260008152610956565b60006122c16040518060200160405280600081525083611d4a90919063ffffffff16565b156122cb57600080fd5b600083600001836040518082805190602001908083835b602083106123015780518252601f1990920191602091820191016122e2565b6001836020036101000a03801982511681845116808217855250505050505090500191505090815260200160405180910390206002015411156123d25782600001826040518082805190602001908083835b602083106123725780518252601f199092019160209182019101612353565b51815160209384036101000a6000190180199092169116179052920194855250604051938490030190922080546001600160a01b03191681559150600090506123be6001830182612b70565b6002820160009055505061190283836128a9565b5060006112c3565b60008083600001836040518082805190602001908083835b602083106124115780518252601f1990920191602091820191016123f2565b51815160209384036101000a60001901801990921691161790529201948552506040519384900301909220600201549290921195945050505050565b600080606060008086600001866040518082805190602001908083835b602083106124895780518252601f19909201916020918201910161246a565b6001836020036101000a038019825116818451168082178552505050505050905001915050908152602001604051809103902060020154111561269757600186600001866040518082805190602001908083835b602083106124fc5780518252601f1990920191602091820191016124dd565b51815160209384036101000a60001901801990921691161790529201948552506040519384900381018420548a516001600160a01b03909116948c94508b9350918291908401908083835b602083106125665780518252601f199092019160209182019101612547565b51815160209384036101000a600019018019909216911617905292019485525060405193849003810184208b516001909101948d94508c9350918291908401908083835b602083106125c95780518252601f1990920191602091820191016125aa565b518151600019602094850361010090810a820192831692199390931691909117909252949092019687526040805197889003820188206002908101548a54601f60018216159098029095019094160494850182900482028801820190528387529095945086935084019050828280156126835780601f1061265857610100808354040283529160200191612683565b820191906000526020600020905b81548152906001019060200180831161266657829003601f168201915b5050505050915093509350935093506126b0565b5050604080516020810190915260008082529250829150815b92959194509250565b6001600160a01b03811661270157604051600160e51b62461bcd028152600401808060200182810382526026815260200180612cba6026913960400191505060405180910390fd5b600080546040516001600160a01b03808516939216917f8be0079c531659141344cd1fd0a4f28419497f9722a3daafe3b4186f6b6457e091a3600080546001600160a01b0319166001600160a01b0392909216919091179055565b815181516000918491849190811115612773575080515b60005b818110156128315782818151811061278a57fe5b602001015160f81c60f81b6001600160f81b0319168482815181106127ab57fe5b602001015160f81c60f81b6001600160f81b03191610156127d4576000199450505050506112c3565b8281815181106127e057fe5b602001015160f81c60f81b6001600160f81b03191684828151811061280157fe5b602001015160f81c60f81b6001600160f81b03191611156128295760019450505050506112c3565b600101612776565b508151835110156128495760001993505050506112c3565b81518351111561285f57600193505050506112c3565b600093505050506112c3565b5b6020811061288b578151835260209283019290910190601f190161286c565b905182516020929092036101000a6000190180199091169116179052565b6000805b600184015481101561298f5761296d838560010183815481106128cc57fe5b600091825260209182902001805460408051601f600260001961010060018716150201909416939093049283018590048502810185019091528181529283018282801561295a5780601f1061292f5761010080835404028352916020019161295a565b820191906000526020600020905b81548152906001019060200180831161293d57829003601f168201915b5050505050611d4a90919063ffffffff16565b156129775761298f565b61298881600163ffffffff611e2f16565b90506128ad565b600184015481106129a45760009150506112c3565b6001848101546000916129bd919063ffffffff612a7816565b90505b80821015612a4557846001016129e0600184611e2f90919063ffffffff16565b815481106129ea57fe5b90600052602060002001856001018381548110612a0357fe5b906000526020600020019080546001816001161561010002031660029004612a2c929190612bde565b50612a3e82600163ffffffff611e2f16565b91506129c0565b846001018181548110612a5457fe5b906000526020600020016000612a6a9190612b70565b806121cd6001870182612c53565b600082821115612ad25760408051600160e51b62461bcd02815260206004820152601e60248201527f536166654d6174683a207375627472616374696f6e206f766572666c6f770000604482015290519081900360640190fd5b50900390565b828054600181600116156101000203166002900490600052602060002090601f016020900481019282601f10612b1957805160ff1916838001178555612b46565b82800160010185558215612b46579182015b82811115612b46578251825591602001919060010190612b2b565b50612b52929150612c7c565b5090565b604051806040016040528060008152602001600081525090565b50805460018160011615610100020316600290046000825580601f10612b965750611ce8565b601f016020900490600052602060002090810190611ce89190612c7c565b604051806060016040528060006001600160a01b0316815260200160608152602001600081525090565b828054600181600116156101000203166002900490600052602060002090601f016020900481019282601f10612c175780548555612b46565b82800160010185558215612b4657600052602060002091601f016020900482015b82811115612b46578254825591600101919060010190612c38565b815481835581811115612c7757600083815260209020612c77918101908301612c96565b505050565b61136a91905b80821115612b525760008155600101612c82565b61136a91905b80821115612b52576000612cb08282612b70565b50600101612c9c56fe4f776e61626c653a206e6577206f776e657220697320746865207a65726f20616464726573734f776e61626c653a2063616c6c6572206973206e6f7420746865206f776e6572a165627a7a723058204faa9a8f40e02430e399ca3ef747b5628a6be8989269fac319912b2690cfd6940029",
  "source": "pragma solidity >=0.4.22 <0.7.0;\r\n\r\n\r\nimport \"./HashBaseCon.sol\";\r\n\r\n\r\n/**\r\n * This contract will take charge of submitting file hash to blockchain\r\n *\r\n */\r\ncontract DRCMediaHashCon is DRCHashBase {\r\n  enum MediaType { \r\n    ARTICLE, \r\n    AUDIO, \r\n    VIDEO \r\n  }\r\n\r\n  struct MediaInfo {\r\n    string mediaName; // must have a value\r\n    string mediaUrl; // must have\r\n    string author; // must have\r\n    MediaType t; // must have    \r\n  }\r\n\r\n  mapping(string => MediaInfo) private mediaHashInfo;\r\n\r\n  event LogInsertMediaHash(\r\n    address indexed _operator, \r\n    string _hash, \r\n    string _mediaName, \r\n    string _mediaUrl, \r\n    string _mediaType,\r\n    bool _bool\r\n  );\r\n\r\n  event LogDeleteMediaHash(\r\n    address indexed _operator, \r\n    string _hash, \r\n    string _mediaName, \r\n    string _mediaUrl,\r\n    string _mediaType, \r\n    bool _bool\r\n  );\r\n\r\n  /**\r\n   * @dev Constructor,not used just reserved\r\n   */\r\n  constructor() public {\r\n  }\r\n\r\n  /**\r\n   * @dev insertHash,insert hash into contract\r\n   * @param _hash is input value of hash\r\n   * @param _uploadedData is the additional data being uploaded to the contract\r\n   * @return bool,true is successful and false is failed\r\n   */\r\n  function insertHash(string memory _hash, bytes memory _uploadedData) \r\n    public \r\n    onlyOwner \r\n    returns (bool) \r\n  {\r\n    require(!_hash.equal(\"\"));\r\n\r\n    (string memory _saverName, string memory _mediaName, string memory _mediaUrl, string memory _author, uint256 _mediaType) \r\n      = abi.decode(_uploadedData, (string, string, string, string, uint256));\r\n\r\n    bool res = hashInfoLib.insertHash(_hash, _saverName);\r\n    require(res);\r\n    mediaHashInfo[_hash] = MediaInfo(_mediaName, _mediaUrl, _author, MediaType(_mediaType)); \r\n    emit LogInsertMediaHash(\r\n      msg.sender, \r\n      _hash, \r\n      mediaHashInfo[_hash].mediaName,\r\n      mediaHashInfo[_hash].mediaUrl, \r\n      getMediaTypeStr(mediaHashInfo[_hash].t),\r\n      res\r\n    );\r\n\r\n    return true;\r\n  }\r\n\r\n  /**\r\n   * @dev selectHash,select hash from contract\r\n   * @param _hash is input value of hash\r\n   * @return true/false,saver,save time\r\n   */\r\n  function selectHash(string memory _hash) \r\n    public \r\n    view \r\n    returns (bool, address, bytes memory, uint256, string memory) \r\n  {\r\n    bool selectRes;\r\n    HashOperateLib.ExInfo memory exInfo;\r\n\r\n    (selectRes, exInfo.saver, exInfo.saverName, exInfo.saveTime) = hashInfoLib.selectHash(_hash);\r\n    string memory selectTxHash = getTxIdByHash(_hash);\r\n    bytes memory selectData = abi.encodePacked(\r\n      exInfo.saverName, \r\n      mediaHashInfo[_hash].mediaName,\r\n      mediaHashInfo[_hash].mediaUrl,\r\n      mediaHashInfo[_hash].author,\r\n      uint256(mediaHashInfo[_hash].t)\r\n    );\r\n\r\n    return (\r\n      selectRes, \r\n      exInfo.saver, \r\n      selectData,\r\n      exInfo.saveTime,\r\n      selectTxHash\r\n    );\r\n  }\r\n\r\n  /**\r\n   * @dev deleteHash,delete hash into contract\r\n   * @param _hash is input value of hash\r\n   * @return bool,true is successful and false is failed\r\n   */\r\n  function deleteHash(string memory _hash) public onlyOwner returns (bool) {\r\n    bool res = hashInfoLib.deleteHash(_hash);\r\n    if (res) \r\n      delete mediaHashInfo[_hash];\r\n\r\n    emit LogDeleteMediaHash(\r\n      msg.sender, \r\n      _hash, \r\n      mediaHashInfo[_hash].mediaName,\r\n      mediaHashInfo[_hash].mediaUrl, \r\n      getMediaTypeStr(mediaHashInfo[_hash].t),\r\n      res\r\n    );\r\n\r\n    return res;\r\n  }\r\n\r\n  function getMediaTypeStr(MediaType t) private pure returns (string memory) {\r\n    if (t == MediaType.ARTICLE) {\r\n      return \"Article\";\r\n    } else if (t == MediaType.AUDIO) {\r\n      return \"Audio\";\r\n    } else if (t == MediaType.VIDEO) {\r\n      return \"Video\";\r\n    } else {\r\n      return \"\";\r\n    }\r\n  }\r\n\r\n}",
  "sourcePath": "E:/workspace/Dapp-DRCHash/contracts/MediaHashCon.sol",
  "compiler": {
    "name": "solc",
    "version": "0.5.8+commit.23d335f2.Emscripten.clang"
  },
  "schemaVersion": "3.0.10",
  "updatedAt": "2019-06-12T09:03:03.261Z",
  "devdoc": {
    "methods": {
      "addTxIdForOnchainData(string,string)": {
        "details": "add Tx hash for the hash string uploaded to blockchain\r",
        "params": {
          "_hash": "is input value of hash\r",
          "_txHash": "is the Tx hash value generated by action of inserting hash\r"
        },
        "return": "bool,true is successful and false is failed\r"
      },
      "constructor": {
        "details": "Constructor,not used just reserved\r"
      },
      "deleteHash(string)": {
        "details": "deleteHash,delete hash into contract\r",
        "params": {
          "_hash": "is input value of hash\r"
        },
        "return": "bool,true is successful and false is failed\r"
      },
      "getHashByTxId(string)": {
        "details": "get inserted hash string by the Tx hash\r",
        "params": {
          "_txHash": "is input value of Tx hash\r"
        },
        "return": "is the hash string corresponding to the Tx hash\r"
      },
      "getInsertedHashGroup(uint256[])": {
        "details": "get a group of Tx hashs for the hash strings uploaded to blockchain\r",
        "params": {
          "_indices": "is array of the index of the Tx hash group\r"
        },
        "return": "is the Tx hash value generated by action of inserting hash\r"
      },
      "getTxIdByHash(string)": {
        "details": "get Tx hash for the hash string uploaded to blockchain\r",
        "params": {
          "_hash": "is input value of hash\r"
        },
        "return": "is the Tx hash value generated by action of inserting hash\r"
      },
      "insertHash(string,bytes)": {
        "details": "insertHash,insert hash into contract\r",
        "params": {
          "_hash": "is input value of hash\r",
          "_uploadedData": "is the additional data being uploaded to the contract\r"
        },
        "return": "bool,true is successful and false is failed\r"
      },
      "isOwner()": {
        "details": "Returns true if the caller is the current owner."
      },
      "owner()": {
        "details": "Returns the address of the current owner."
      },
      "renounceOwnership()": {
        "details": "Leaves the contract without owner. It will not be possible to call `onlyOwner` functions anymore. Can only be called by the current owner.     * > Note: Renouncing ownership will leave the contract without an owner, thereby removing any functionality that is only available to the owner."
      },
      "selectHash(string)": {
        "details": "selectHash,select hash from contract\r",
        "params": {
          "_hash": "is input value of hash\r"
        },
        "return": "true/false,saver,save time\r"
      },
      "setMemo(string)": {
        "details": "set the memo to describe the objective of the contract\r"
      },
      "transferOwnership(address)": {
        "details": "Transfers ownership of the contract to a new account (`newOwner`). Can only be called by the current owner."
      }
    }
  },
  "userdoc": {
    "methods": {},
    "notice": "This contract will take charge of submitting file hash to blockchain\r  "
  }
}